{
  "contractName": "CourseMarketplace",
  "abi": [
    {
      "inputs": [],
      "stateMutability": "nonpayable",
      "type": "constructor"
    },
    {
      "inputs": [],
      "name": "CourseHasOwner",
      "type": "error"
    },
    {
      "inputs": [],
      "name": "CourseIsNotCreated",
      "type": "error"
    },
    {
      "inputs": [],
      "name": "InvalidState",
      "type": "error"
    },
    {
      "inputs": [],
      "name": "OnlyOwner",
      "type": "error"
    },
    {
      "inputs": [
        {
          "internalType": "bytes16",
          "name": "courseId",
          "type": "bytes16"
        },
        {
          "internalType": "bytes32",
          "name": "proof",
          "type": "bytes32"
        }
      ],
      "name": "purchaseCourse",
      "outputs": [],
      "stateMutability": "payable",
      "type": "function",
      "payable": true
    },
    {
      "inputs": [
        {
          "internalType": "bytes32",
          "name": "courseHash",
          "type": "bytes32"
        }
      ],
      "name": "activateCourse",
      "outputs": [],
      "stateMutability": "nonpayable",
      "type": "function"
    },
    {
      "inputs": [
        {
          "internalType": "address",
          "name": "newOwner",
          "type": "address"
        }
      ],
      "name": "transferOwnership",
      "outputs": [],
      "stateMutability": "nonpayable",
      "type": "function"
    },
    {
      "inputs": [],
      "name": "getCourseCount",
      "outputs": [
        {
          "internalType": "uint256",
          "name": "",
          "type": "uint256"
        }
      ],
      "stateMutability": "view",
      "type": "function",
      "constant": true
    },
    {
      "inputs": [
        {
          "internalType": "uint256",
          "name": "index",
          "type": "uint256"
        }
      ],
      "name": "getCourseHashAtIndex",
      "outputs": [
        {
          "internalType": "bytes32",
          "name": "",
          "type": "bytes32"
        }
      ],
      "stateMutability": "view",
      "type": "function",
      "constant": true
    },
    {
      "inputs": [
        {
          "internalType": "bytes32",
          "name": "courseHash",
          "type": "bytes32"
        }
      ],
      "name": "getCourseByHash",
      "outputs": [
        {
          "components": [
            {
              "internalType": "uint256",
              "name": "id",
              "type": "uint256"
            },
            {
              "internalType": "uint256",
              "name": "price",
              "type": "uint256"
            },
            {
              "internalType": "bytes32",
              "name": "proof",
              "type": "bytes32"
            },
            {
              "internalType": "address",
              "name": "owner",
              "type": "address"
            },
            {
              "internalType": "enum CourseMarketplace.State",
              "name": "state",
              "type": "uint8"
            }
          ],
          "internalType": "struct CourseMarketplace.Course",
          "name": "",
          "type": "tuple"
        }
      ],
      "stateMutability": "view",
      "type": "function",
      "constant": true
    },
    {
      "inputs": [],
      "name": "getContractOwner",
      "outputs": [
        {
          "internalType": "address",
          "name": "",
          "type": "address"
        }
      ],
      "stateMutability": "view",
      "type": "function",
      "constant": true
    }
  ],
  "bytecode": "0x608060405234801561000f575f80fd5b5061001f3361002460201b60201c565b610067565b8060035f6101000a81548173ffffffffffffffffffffffffffffffffffffffff021916908373ffffffffffffffffffffffffffffffffffffffff16021790555050565b610c4b806100745f395ff3fe60806040526004361061006f575f3560e01c80636d11290b1161004d5780636d11290b1461010157806396cfda061461013d578063d76821cb14610167578063f2fde38b146101835761006f565b80633926257214610073578063442890d51461009b57806362e4e6ac146100c5575b5f80fd5b34801561007e575f80fd5b50610099600480360381019061009491906107d9565b6101ab565b005b3480156100a6575f80fd5b506100af610308565b6040516100bc9190610843565b60405180910390f35b3480156100d0575f80fd5b506100eb60048036038101906100e691906107d9565b610330565b6040516100f8919061096b565b60405180910390f35b34801561010c575f80fd5b50610127600480360381019061012291906109ae565b610407565b60405161013491906109e8565b60405180910390f35b348015610148575f80fd5b50610151610421565b60405161015e9190610a10565b60405180910390f35b610181600480360381019061017c9190610a7e565b61042a565b005b34801561018e575f80fd5b506101a960048036038101906101a49190610ae6565b6105bf565b005b6101b3610308565b73ffffffffffffffffffffffffffffffffffffffff163373ffffffffffffffffffffffffffffffffffffffff1614610217576040517f5fc483c500000000000000000000000000000000000000000000000000000000815260040160405180910390fd5b61022081610637565b610256576040517f4db0c48300000000000000000000000000000000000000000000000000000000815260040160405180910390fd5b5f805f8381526020019081526020015f2090505f600281111561027c5761027b610892565b5b8160030160149054906101000a900460ff1660028111156102a05761029f610892565b5b146102d7576040517fbaf3f0f700000000000000000000000000000000000000000000000000000000815260040160405180910390fd5b60018160030160146101000a81548160ff021916908360028111156102ff576102fe610892565b5b02179055505050565b5f60035f9054906101000a900473ffffffffffffffffffffffffffffffffffffffff16905090565b61033861074d565b5f808381526020019081526020015f206040518060a00160405290815f82015481526020016001820154815260200160028201548152602001600382015f9054906101000a900473ffffffffffffffffffffffffffffffffffffffff1673ffffffffffffffffffffffffffffffffffffffff1673ffffffffffffffffffffffffffffffffffffffff1681526020016003820160149054906101000a900460ff1660028111156103ea576103e9610892565b5b60028111156103fc576103fb610892565b5b815250509050919050565b5f60015f8381526020019081526020015f20549050919050565b5f600254905090565b5f823360405160200161043e929190610b76565b60405160208183030381529060405280519060200120905061045f816106a1565b15610496576040517fb0fc2d9700000000000000000000000000000000000000000000000000000000815260040160405180910390fd5b5f60025f8154809291906104a990610bce565b9190505590508160015f8381526020019081526020015f20819055506040518060a001604052808281526020013481526020018481526020013373ffffffffffffffffffffffffffffffffffffffff1681526020015f600281111561051157610510610892565b5b8152505f808481526020019081526020015f205f820151815f015560208201518160010155604082015181600201556060820151816003015f6101000a81548173ffffffffffffffffffffffffffffffffffffffff021916908373ffffffffffffffffffffffffffffffffffffffff16021790555060808201518160030160146101000a81548160ff021916908360028111156105b1576105b0610892565b5b021790555090505050505050565b6105c7610308565b73ffffffffffffffffffffffffffffffffffffffff163373ffffffffffffffffffffffffffffffffffffffff161461062b576040517f5fc483c500000000000000000000000000000000000000000000000000000000815260040160405180910390fd5b6106348161070a565b50565b5f8073ffffffffffffffffffffffffffffffffffffffff165f808481526020019081526020015f206003015f9054906101000a900473ffffffffffffffffffffffffffffffffffffffff1673ffffffffffffffffffffffffffffffffffffffff1614159050919050565b5f3373ffffffffffffffffffffffffffffffffffffffff165f808481526020019081526020015f206003015f9054906101000a900473ffffffffffffffffffffffffffffffffffffffff1673ffffffffffffffffffffffffffffffffffffffff16149050919050565b8060035f6101000a81548173ffffffffffffffffffffffffffffffffffffffff021916908373ffffffffffffffffffffffffffffffffffffffff16021790555050565b6040518060a001604052805f81526020015f81526020015f80191681526020015f73ffffffffffffffffffffffffffffffffffffffff1681526020015f600281111561079c5761079b610892565b5b81525090565b5f80fd5b5f819050919050565b6107b8816107a6565b81146107c2575f80fd5b50565b5f813590506107d3816107af565b92915050565b5f602082840312156107ee576107ed6107a2565b5b5f6107fb848285016107c5565b91505092915050565b5f73ffffffffffffffffffffffffffffffffffffffff82169050919050565b5f61082d82610804565b9050919050565b61083d81610823565b82525050565b5f6020820190506108565f830184610834565b92915050565b5f819050919050565b61086e8161085c565b82525050565b61087d816107a6565b82525050565b61088c81610823565b82525050565b7f4e487b71000000000000000000000000000000000000000000000000000000005f52602160045260245ffd5b600381106108d0576108cf610892565b5b50565b5f8190506108e0826108bf565b919050565b5f6108ef826108d3565b9050919050565b6108ff816108e5565b82525050565b60a082015f8201516109195f850182610865565b50602082015161092c6020850182610865565b50604082015161093f6040850182610874565b5060608201516109526060850182610883565b50608082015161096560808501826108f6565b50505050565b5f60a08201905061097e5f830184610905565b92915050565b61098d8161085c565b8114610997575f80fd5b50565b5f813590506109a881610984565b92915050565b5f602082840312156109c3576109c26107a2565b5b5f6109d08482850161099a565b91505092915050565b6109e2816107a6565b82525050565b5f6020820190506109fb5f8301846109d9565b92915050565b610a0a8161085c565b82525050565b5f602082019050610a235f830184610a01565b92915050565b5f7fffffffffffffffffffffffffffffffff0000000000000000000000000000000082169050919050565b610a5d81610a29565b8114610a67575f80fd5b50565b5f81359050610a7881610a54565b92915050565b5f8060408385031215610a9457610a936107a2565b5b5f610aa185828601610a6a565b9250506020610ab2858286016107c5565b9150509250929050565b610ac581610823565b8114610acf575f80fd5b50565b5f81359050610ae081610abc565b92915050565b5f60208284031215610afb57610afa6107a2565b5b5f610b0884828501610ad2565b91505092915050565b5f819050919050565b610b2b610b2682610a29565b610b11565b82525050565b5f8160601b9050919050565b5f610b4782610b31565b9050919050565b5f610b5882610b3d565b9050919050565b610b70610b6b82610823565b610b4e565b82525050565b5f610b818285610b1a565b601082019150610b918284610b5f565b6014820191508190509392505050565b7f4e487b71000000000000000000000000000000000000000000000000000000005f52601160045260245ffd5b5f610bd88261085c565b91507fffffffffffffffffffffffffffffffffffffffffffffffffffffffffffffffff8203610c0a57610c09610ba1565b5b60018201905091905056fea26469706673582212203be9a630369e65fdfa10f8f339c10f6eb0f58227cb3f9737a99bfe9d980b395f64736f6c63430008150033",
  "immutableReferences": {},
  "source": "// SPDX-License-Identifier: MIT\npragma solidity >=0.4.22 <0.9.0;\n\ncontract CourseMarketplace {\n\n  enum State {\n    Purchased,\n    Activated,\n    Deactivated\n  }\n\n  struct Course {\n    uint id; // 32\n    uint price; // 32\n    bytes32 proof; // 32\n    address owner; // 20\n    State state; // 1\n  }\n  \n  // mapping of courseHash to Course data\n  mapping(bytes32 => Course) private ownedCourses;\n  \n  // mapping of courseID to courseHash\n  mapping(uint => bytes32) private ownedCourseHash;\n\n  // number of all courses + id of the course\n  uint private totalOwnedCourses;\n\n  address payable private owner;\n\n  /// Course has invalid state!\n  error InvalidState();\n\n  /// Course is not created!\n  error CourseIsNotCreated();\n\n  /// Course has already a Owner!\n  error CourseHasOwner();\n\n  /// Only owner has an access!\n  error OnlyOwner();\n\n  constructor() {\n    setContractOwner(msg.sender);\n  }\n\n  modifier onlyOwner() {\n    if (msg.sender != getContractOwner()) {\n      revert OnlyOwner();\n    }\n    _;\n  }\n\n  function purchaseCourse(\n    bytes16 courseId, // 0x00000000000000000000000000003130\n    bytes32 proof // 0x0000000000000000000000000000313000000000000000000000000000003130\n  )\n    external\n    payable\n  {\n    bytes32 courseHash = keccak256(abi.encodePacked(courseId, msg.sender));\n    if (hasCourseOwnership(courseHash)) {\n      revert CourseHasOwner();\n    }\n    uint id = totalOwnedCourses++;\n    ownedCourseHash[id] = courseHash;\n    ownedCourses[courseHash] = Course({\n      id: id,\n      price: msg.value,\n      proof: proof,\n      owner: msg.sender,\n      state: State.Purchased\n    });\n  }\n\n  function activateCourse(bytes32 courseHash)\n    external\n    onlyOwner\n  {\n    if (!isCourseCreated(courseHash)) {\n      revert CourseIsNotCreated();\n    }\n\n    Course storage course = ownedCourses[courseHash];\n\n    if (course.state != State.Purchased) {\n      revert InvalidState();\n    }\n\n    course.state = State.Activated;\n  }\n\n  function transferOwnership(address newOwner)\n    external\n    onlyOwner\n  {\n    setContractOwner(newOwner);\n  }\n  \n  function getCourseCount()\n    external\n    view\n    returns (uint)\n  {\n    return totalOwnedCourses;\n  }\n\n  function getCourseHashAtIndex(uint index)\n    external\n    view\n    returns (bytes32)\n  {\n    return ownedCourseHash[index];\n  }\n\n  function getCourseByHash(bytes32 courseHash)\n    external\n    view\n    returns (Course memory)\n  {\n    return ownedCourses[courseHash];\n  }\n\n  function isCourseCreated(bytes32 courseHash)\n    private\n    view\n    returns (bool)\n  {\n    return ownedCourses[courseHash].owner != 0x0000000000000000000000000000000000000000;\n  }\n\n\n  function setContractOwner(address newOwner) private {\n    owner = payable(newOwner);\n  }\n\n  function hasCourseOwnership(bytes32 courseHash)\n    private\n    view\n    returns (bool)\n  {\n    return ownedCourses[courseHash].owner == msg.sender;\n  }\n\n  function getContractOwner()\n    public\n    view\n    returns (address)\n  {\n    return owner;\n  }\n}",
  "sourcePath": "/home/anonymous/Sharing/market-place/marketplace-web3/smart-contract/contracts/CourseMarketplace.sol",
  "compiler": {
    "name": "solc",
    "version": "0.8.21+commit.d9974bed.Emscripten.clang"
  },
  "schemaVersion": "3.4.16",
  "updatedAt": "2024-01-30T13:59:29.866Z",
  "networkType": "ethereum",
  "devdoc": {
    "kind": "dev",
    "methods": {},
    "version": 1
  },
  "userdoc": {
    "errors": {
      "CourseHasOwner()": [
        {
          "notice": "Course has already a Owner!"
        }
      ],
      "CourseIsNotCreated()": [
        {
          "notice": "Course is not created!"
        }
      ],
      "InvalidState()": [
        {
          "notice": "Course has invalid state!"
        }
      ],
      "OnlyOwner()": [
        {
          "notice": "Only owner has an access!"
        }
      ]
    },
    "kind": "user",
    "methods": {},
    "version": 1
  }
}